:020000040800F2
:1000000050040020D1000008F10C0008270C000863
:1000100000000000000000000000000000000000E0
:100020000000000000000000000000003B0D000880
:100030000000000000000000390D00083D0D000820
:10004000E3000008E3000008E3000008E300000804
:10005000E30000083D010008E3000008E300000899
:10006000E3000008E3000008E3000008E3000008E4
:10007000E3000008E3000008E3000008E3000008D4
:10008000010E0008E300000800000000E300000883
:10009000E3000008E3000008E3000008E3000008B4
:1000A000E3000008E3000008E3000008E3000008A4
:1000B000E300000800000000E30000080348854654
:1000C00000F02AF800480047310F000850040020D3
:1000D0000448804704480047FEE7FEE7FEE7FEE7E6
:1000E000FEE7FEE7A50D0008BD00000830B50B4691
:1000F000014600202022012409E00D46D5409D4202
:1001000005D31D469540491B254695404019154687
:10011000521E002DF1DC30BD064C0125064E05E0D7
:10012000E36807CC2B430C3C98471034B442F7D318
:10013000FFF7C8FFA00F0008C00F000810B501208E
:1001400000F026F810BD000070B50E4B012813D149
:100150000D480124428881888A4203D90B4E551AE2
:10016000B54208DB0A430AD04180DA6A92B2511ADA
:1001700082801E2900DD04700020D86270BDD96A1B
:100180008180F8E70004004000000020DE0300004A
:1001900010B504494A69024202D04861FFF7D4FF12
:1001A00010BD000000040140F8B500238DE00124DB
:1001B0009C40A44622407DD04C68022C01D0122CD9
:1001C0000CD1DC08A40027183C6A5D07ED0E0F2651
:1001D000AE40B4430E69AE4026433E6205685E0001
:1001E0000324B4400F79A543BF07BF0FB7402F4387
:1001F00007604D68012D05D0022D03D0112D01D0CF
:10020000122D0ED18568CF68A543B7402F43876074
:1002100047686546AF430D79ED06ED0F9D403D43C0
:100220004560C568A5438C68B4402C43C4604C68E5
:10023000E40049D5284CA56901263543A561A46988
:100240009D0834400094254CAD002F19BC689D07D3
:100250002E0F0F25B540AC430925ED06A84201D16C
:1002600000250FE01E4DA84201D101250AE01D4DD9
:10027000A84201D1022505E01B4DA84201D103256A
:1002800000E00525B5402543BD60184C25684E6843
:100290009543F60300D51543256065684E68954380
:1002A000B60300D515436560A5684E689543F60210
:1002B00002D500E008E01543A560E5684E68954367
:1002C000B60200D51543E5605B1C0A681446DC40A5
:1002D00000D06CE7F8BD00000010024000000140B3
:1002E0000004004800080048000C004800040140D9
:1002F00042694A4042617047002A01D081617047DB
:1003000081627047014800687047000008000020C3
:1003100002480168491C0160704700000800002085
:1003200010B506480168102211430160002000F05A
:1003300007F800F017F8002010BD00000020024070
:1003400010B5044600F0D4F87D21C900FFF7CEFEB9
:1003500000F0C8FA00222146501E00F02FF80020BD
:1003600010BD000008B50F48816901221143816169
:10037000816911400091C26901040A43C261C069E8
:100380000022084000901146501F00F017F800228C
:100390001146901E00F012F800221146501E00F087
:1003A0000DF808BD00100240C106C90E01208840AA
:1003B000014908607047000000E100E010B500F05E
:1003C00099FC10BDF8B5054644480E460068C007C4
:1003D000C00FB0420AD24148016849084900314380
:1003E00001600068C007C00FB0425CD128783C4C67
:1003F000800705D56068F0218843A96808436060DC
:100400002878C0073FD06868012813D021680228E7
:1004100013D08907002946DA6168890889000143F9
:100420006160FFF76FFF6968074601290DD0022957
:1004300017D024E021688903ECE78901EAE7FFF798
:1004400061FFC11B2748814217D860680007800FF1
:100450000128F4D117E0FFF755FFC11B2148814265
:100460000BD860680007800F0228F4D10BE0FFF77B
:1004700049FFC11B1B48814201D90320F8BD6068B8
:100480000007800FF3D115480168C907C90FB142B1
:100490000BD9016849084900314301600068C00771
:1004A000C00FB04201D00120F8BD2878400706D522
:1004B0006068072109028843E9680843606000F02A
:1004C0001DF86168084A0906090F515CC8400749D0
:1004D00008600020FFF734FF0020F8BD0020024034
:1004E0000010024088130000900F00080C0000204C
:1004F00001480068704700000C00002010B512A3EE
:100500000FCB88B06C460FC413A30FCB0FC4164992
:100510004A680C20134603401448042B0FD0082BC4
:100520000DD193021B0F6C46E45CC96A04AB09074A
:10053000090F595CD20304D5FFF7D8FD604308B01A
:1005400010BD0B486043FAE70203040506070809DB
:100550000A0B0C0D0E0F101001020304050607080C
:10056000090A0B0C0D0E0F100010024000127A0049
:1005700000093D00FEB504460078D04DC00747D0C5
:1005800068680007800F012807D068680007800F9F
:10059000022809D16868C00306D52868800337D5CA
:1005A000606800287ED033E0012062680004012AE0
:1005B00011D08100002A01D0052A10D02A68824378
:1005C0002A602868884328606068002814D0FFF7F4
:1005D00099FE06460CE0296801432960F4E72A6881
:1005E0000A432A60F7E7FFF78DFE801B64286FD867
:1005F00028688003F7D50BE0FFF784FE064604E089
:10060000FFF780FE801B6428F1D828688003F7D4A8
:1006100020780126800700283BDA68680007800FF1
:1006200007D068680007800F022809D16868C003F6
:1006300006D42868800715D5E068012832D111E07A
:10064000E0680028286815D030432860FFF75AFE7C
:10065000074604E0FFF756FEC01B0228C7D82868EB
:100660008007F7D52868F82188432169C900084325
:1006700028600EE0400840002860FFF743FE074670
:1006800004E0FFF73FFEC01B0228B0D828688007AF
:10069000F7D42078000724D5E0690028686A10D0D4
:1006A000304300E008E16862FFF72CFE074604E0F3
:1006B000FFF728FEC01B022899D8686A8007F7D583
:1006C0000FE0400840006862FFF71CFE074605E0A7
:1006D0009DE0FFF717FEC01B022888D8686A8007D4
:1006E000F7D4207804274007002860DA0020019022
:1006F000E869C00008D4E969B8060143E961E9691D
:1007000001400120009101906D480168C90511D494
:100710000168821511430160FFF7F4FD009005E0C8
:10072000FFF7F0FD0099401A642870D8644800680B
:10073000C005F5D5A06801280AD0002801D00528F9
:1007400010D0286A400840002862286AB84301E0B7
:10075000286A30432862A068002812D0FFF7D2FD33
:1007600000900AE0286A38432862F1E7FFF7CAFDE3
:100770000099411A5348814249D8286A8007F5D523
:100780000DE0FFF7BFFD009006E0FFF7BBFD00990D
:10079000411A4C4881423AD8286A8007F5D401981A
:1007A000002804D0E969012000078143E96120782D
:1007B000C00635D5606901280CD0401D686B23D078
:1007C00038436863686B400840006863FFF79AFD30
:1007D000064622E0686B38436863686B30436863A1
:1007E000FFF790FD064604E0FFF78CFD801B022812
:1007F0005BD8686B8007F7D5686BF8218843A169DF
:10080000C900084368630BE0B8436863F4E74CE051
:10081000FFF778FD801B022847D8686B8007F7D464
:10082000206A002846D069680907890F022943D049
:10083000012636060228286805D0B0432860FFF755
:1008400061FD044633E0B0432860FFF75BFD0746D7
:1008500004E0FFF757FDC01B022826D82868800156
:10086000F7D4E86AE16A000900010843E862616AB6
:10087000A06A084369683D221204914308436860F6
:10088000286830432860FFF73DFD044604E0FFF789
:1008900039FD001B022808D828688001F7D509E037
:1008A000FFF730FD001B022801D90320FEBD286898
:1008B0008001F5D40020FEBD0120FEBD00100240E5
:1008C00000700040881300000422044904280869CD
:1008D00002D09043086170471043FBE700E000E05E
:1008E00070470000094910B5401E884201D9012017
:1008F00010BD074C60610321081F00F0FBF90020C8
:10090000A06107202061002010BD0000FFFFFF0054
:1009100000E000E010B5FFF7E3FF10BD704770473F
:1009200070B502462032137F012B1BD001231377B1
:1009300002245477046865687026B54365600468CE
:1009400065680E68354365600468A5688026B54310
:10095000A5600068846849680C4384605377002070
:10096000107770BD022070BD70B5040005D025461B
:100970002035687F002802D006E0012070BD0020ED
:100980002877204600F00AF802206877211D2068A9
:1009900000F03EFA01206877002070BD08B50068BD
:1009A0000549884207D10548C26902210A43C2614C
:1009B000C0690840009008BD0004004000100240DB
:1009C000F8B5054604462035287F012817D00127B1
:1009D0002F7702206877226890687726FF23B0433C
:1009E0001B02984390600868502837D00EDC2028FE
:1009F00057D006DC00284ED0102840D14EE002200F
:100A0000F8BD302850D0402839D13CE060282DD0A6
:100A1000702817D001221203801A0ED090422ED1D6
:100A2000CB684A688968206800F03CFA20688168D1
:100A3000012292031143816021E020688168C90886
:100A4000C900F8E7CB684A688968206800F02AFA8C
:100A500021688868B0433043886010E0CA684968FC
:100A6000206800F032FA5021206806E0CA68496820
:100A7000206800F03BFA6021206800F01EFA6F77D2
:100A800000202877F8BDCA684968206800F01DFA80
:100A900040212068F1E700212068EEE7102120685E
:100AA000EBE720212068E8E730212068E5E7000037
:100AB00001490020C86270470004004070B5044638
:100AC000006801690025C9438907002915DBC16851
:100AD000C943890711D4E91E0161012020772068EC
:100AE00080698007204602D0FFF7E2FF04E000F0B3
:100AF00096F8204600F094F8257720680169C943EC
:100B0000490717D4C168C943490713D40421C9430D
:100B1000016102202077206880698005800F2046CF
:100B200002D0FFF7C5FF04E000F079F8204600F09E
:100B300077F8257720680169C943090716D4C16889
:100B4000C943090712D40821C94301610420207751
:100B50002068C0698007204602D0FFF7A9FF04E0A3
:100B600000F05DF8204600F05BF825772068016909
:100B7000C943C90617D4C168C943C90613D4102193
:100B8000C9430161082020772068C0698005800F73
:100B9000204602D0FFF78CFF04E000F040F820462A
:100BA00000F03EF8257720680169C943C90708D1DC
:100BB000C168C943C90704D1891E0161204600F0FC
:100BC00030F820680169C943090609D4C168C943DE
:100BD000090605D48021C94301612046FFF79EFE26
:100BE00020680169C943490609D4C168C943490657
:100BF00005D44021C9430161204600F013F8206864
:100C00000169C943890609D4C168C943890605D465
:100C10002021C94301612046FFF781FE70BD704766
:100C2000704770477047FEE7F0B5164887B04269D5
:100C3000012149040A43426142690A40059242691E
:100C400089000A43426140690F4F08408E120590A7
:100C5000002231463846FFF74FFB0C480190012532
:100C600000240920694600950294C006FFF79CFA0B
:100C7000029469463846009601950394FFF794FA6A
:100C800007B0F0BD0010024000080048000011103D
:100C900010B5144886B012490160002412498460DE
:100CA0004160046111498461C160FFF75DFE002865
:100CB00000D0FEE701200003009069460948FFF7D5
:100CC0007FFE002800D0FEE7049404A9054805949F
:100CD000FFF726FE002800D0FEE706B010BD00009A
:100CE00000040040100000207FBB0000E70300006C
:100CF000704700008307FF22DB0E9A408907090E28
:100D0000994000280BDA0007000F083883080848CC
:100D10009B001818C36993430B43C3617047830852
:100D200004489B001B1818689043084318607047DC
:100D300000ED00E000E400E07047704710B5FFF7F9
:100D4000E7FAFFF7E7FD10BD10B590B00220009064
:100D50000120039010200024049008946846FFF7B7
:100D600009FC002800D0FEE707200C900D940E949B
:100D700000210F940CA8FFF725FB002800D0FEE708
:100D8000FFF7B6FB7D21C900FFF7B0F9FFF7AAFD19
:100D90000420FFF799FD00221146501EFFF70EFBBD
:100DA00010B010BD13480168012211430160416871
:100DB000114A114041600168104A11400160016808
:100DC000012292049143016041683F221204914341
:100DD0004160C16A09090901C162016BFF225432F5
:100DE00091430163416B49084900416300218160DF
:100DF00070470000001002400CB8FFF8FFFFF6FE3D
:100E000010B50248FFF75AFE10BD00001000002088
:100E1000F0B502681D4B0124A4071D4D984203D074
:100E2000A04201D0A84203D17026B2434E6832439B
:100E3000184E194F98420DD0A0420BD0A84209D0AD
:100E4000164CA04206D0B04204D0B84202D0144C96
:100E5000A04204D103242402A243CC68224380246C
:100E6000A2434C69224302608A68C2620A688262B5
:100E7000984206D0B04204D0B84202D0084A90420C
:100E800001D10969016301214161F0BD002C0140DC
:100E900000040040004001400044014000200040A8
:100EA0000048014030B58468FF252D021B02134322
:100EB000AC430B432343836030BD826870239A4365
:100EC0000A4307210A438260704730B5036A046A07
:100ED0006408640004628469F025AC431201224373
:100EE0000A24A3430B438261036230BD30B5036A19
:100EF0001024A34303628469036A0F252D031203A0
:100F0000AC432243A024A343090119438261016237
:100F100030BD02E008C8121F08C1002AFAD170478C
:100F20007047002001E001C1121F002AFBD1704769
:100F3000154C00256580A580FFF7F2F9FFF704FF47
:100F4000FFF772FEFFF7A4FE002211460520FFF70F
:100F500035FA0520FFF728FA002211461020FFF786
:100F60002DFA1020FFF720FA0122084F56023146D1
:100F70003846FFF7C1F920780028FCD031463846C2
:100F8000FFF7B6F92570F6E70000002000080048DA
:100F90000000000000000000010203040607080929
:100FA000C00F00080000002010000000120F000811
:100FB000D00F00081000002040040000220F00089D
:100FC00000000000000000000000000000127A0095
:04000005080000BD32
:00000001FF
